S01800006275696C642F6D696361322F6D61696E2E737265632D
S11300000C94BC010C94D9010C94D9010C94D90121
S11300100C94D9010C94D9010C94D9010C94D901F4
S11300200C94D9010C94D9010C94D9010C94D901E4
S11300300C94D9010C94D9010C94D9010C94E606C2
S11300400C94D9010C943A020C9463020C94D901D7
S11300500C948D020C9433080C94D9010C94D9019E
S11300600C94D9010C94D9010C94D9010C94D901A4
S11300700C94D9010C94D9010C94D9010C94D90194
S11300800C94D9010C94D9010C94D901001C005E84
S113009000FA017301EA04BC0A5E050202020202CC
S11300A002000000140055008700B901E5043D007A
S11300B0080808080808AEEFEFEFEFEFEF3158003B
S11300C00057F685035544020F60E0261C6F5570F7
S11300D0010000000000000000008101317C0000EC
S11300E07BF9AE02388C3280401026A16F55100186
S11300F0000000000000000000F301315100005036
S1130100F74F030E44020F58E026A16F557001000B
S113011000000000000000008101315CE0005CDBB5
S11301204201AA8C3280301026A16F5510010000C4
S113013000000000000000F301314560004555BB9C
S1130140039C80020F68E026A16F54700100000038
S113015000000000000081013158000057F68503BB
S11301605590020F60E026A16F5570010000000059
S1130170000000000081010000211042206330844F
S113018040A550C660E770088129914AA16BB18CE3
S1130190C1ADD1CEE1EFF13112100273325222B56A
S11301A0529442F772D662399318837BB35AA3BD33
S11301B0D39CC3FFF3DEE36224433420040114E63A
S11301C064C774A44485546AA54BB528850995EE83
S11301D0E5CFF5ACC58DD55336722611163006D74A
S11301E076F6669556B4465BB77AA719973887DFD3
S11301F0F7FEE79DD7BCC7C448E5588668A7784092
S113020008611802282338CCC9EDD98EE9AFF94822
S11302108969990AA92BB9F55AD44AB77A966A71A9
S11302201A500A333A122AFDDBDCCBBFFB9EEB7972
S11302309B588B3BBB1AABA66C877CE44CC55C22F9
S11302402C033C600C411CAEED8FFDECCDCDDD2AC2
S1130250AD0BBD688D499D977EB66ED55EF44E1389
S11302603E322E511E700E9FFFBEEFDDDFFCCF1B12
S1130270BF3AAF599F788F8891A981CAB1EBA10C7D
S1130280D12DC14EF16FE18010A100C230E32004F2
S113029050254046706760B9839893FBA3DAB33D59
S11302A0C31CD37FE35EF3B1029012F322D2323542
S11302B042145277625672EAB5CBA5A89589856E29
S11302C0F54FE52CD50DC5E234C324A01481046692
S11302D074476424540544DBA7FAB79987B8975F39
S11302E0E77EF71DC73CD7D326F2369106B01657E2
S11302F0667676154634564CD96DC90EF92FE9C881
S113030099E9898AB9ABA94458654806782768C031
S113031018E1088238A3287DCB5CDB3FEB1EFBF998
S11303208BD89BBBAB9ABB754A545A376A167AF181
S11303300AD01AB32A923A2EFD0FED6CDD4DCDAAE8
S1130340BD8BADE89DC98D267C076C645C454CA2D1
S11303503C832CE01CC10C1FEF3EFF5DCF7CDF9B78
S1130360AFBABFD98FF89F176E367E554E745E9321
S11303702EB23ED10EF01E0011241FBECFEFD0E1ED
S1130380DEBFCDBF11E0A0E0B1E0E0E2F4E200E0C6
S11303900BBF02C007900D92A430B107D9F712E049
S11303A0A4E0B1E001C01D92A238B107E1F70C94BA
S11303B0DA020C940000AF92BF92CF92DF92EF92D8
S11303C0FF920F931F93CF93DF9386EEF82EA090A6
S11303D07602B0907702C0907802D0907902A1148E
S11303E0B104C104D10481F1EE2464E172E000E0BF
S11303F010E081E090E0002E02C0880F991F0A945B
S1130400E2F7AA2797FDA095BA2F8A219B21AC2158
S1130410BD210097A105B10579F02F2D332744277D
S11304205527FB0185819681A781B08582179307A3
S1130430A407B5070CF4F580E3940F5F1F4F675FC3
S11304407F4FF2E0FE15A8F68FB7F8949927F09243
S11304504302F1BE109238028FBF0E94B506DF91AD
S1130460CF911F910F91FF90EF90DF90CF90BF90AD
S1130470AF9008951F920F920FB60F9211242F93ED
S11304803F934F935F936F937F938F939F93AF9318
S1130490BF93EF93FF939FB18091BD018FB9892FD3
S11304A00E94F408FF91EF91BF91AF919F918F91BA
S11304B07F916F915F914F913F912F910F900FBE5C
S11304C00F901F9018951F920F920FB60F92112440
S11304D02F933F934F935F936F937F938F939F9348
S11304E0AF93BF93EF93FF935F9B06C08CB140E043
S11304F050E060E00E94C70BFF91EF91BF91AF9174
S11305009F918F917F916F915F914F913F912F9127
S11305100F900FBE0F901F90189578941F920F9212
S11305200FB60F9211242F933F934F935F936F93C2
S11305307F938F939F93AF93BF93EF93FF930E9407
S1130540930DFF91EF91BF91AF919F918F917F9107
S11305506F915F914F913F912F910F900FBE0F902C
S11305601F901895AC018FB7F894282F3327E0918A
S11305703502809135028F5F809335028091350278
S1130580877080933502909135028091DF0198172E
S113059059F02FBFFF27EE0FFF1FEA55FE4F408390
S11305A0518381E090E00895E09335022FBF80E00D
S11305B090E00895CFEFD0E1DEBFCDBFD29AD09ABC
S11305C0D19AD698A79AA69AA59AA49AA39AA29AD7
S11305D0A19AA09A8C9A8F9A8E9ABB98BF98D49815
S11305E0DC98D39A8B9A8D9ADB9ADA9AD89AD99A0C
S11305F083E08C5F8739E8F310E08AE0809395010B
S1130600109335021093DF0110932F028FB7F894E3
S1130610992710935802DA9AD89AD99A8FBF0E94D0
S113062050050E9450050E947F058FB7F8949927C2
S113063010933A028FBF8FB7F894282F332781E0A5
S113064090E080939201812F8E5F8093040184EE69
S113065091E090933702809336021093E80182E28E
S113066090E090933102809330021093A301109292
S11306707B0210927A0210929E0110929D011092B8
S1130680B8011092B7011093900110938C0110934C
S113069053028FEF9FEF90933C0280933B02909321
S11306A03E0280933D021093130210934102E6EB45
S11306B0F0E0849199279093100280930F022FBF4A
S11306C08FB7F8949927B998BB98BA986B986A9899
S11306D06F9A6E9A8FBFD6988C9A8E9A8F9A949AA4
S11306E0979A969A6AE3812F0E94C3056BE3812F40
S11306F00E94C30580ED97E00000000000000000A8
S11307000000000000000000019718161906A4F369
S113071080E88093C901682F8BE00E94C30580E9BB
S11307208093CB01682F84E00E94C3051092CD0111
S11307308FE68093CE0185E58093CF010E94E70583
S113074011E01093D101612F83E10E94C30510933E
S1130750DC0193E021E030E0AFEBB1E08FE1989F62
S1130760F0011124E20FF31FE354FF4F84918D93A2
S11307702F5F3F4F2F3131058CF30E94E70511E0C5
S1130780CFEBD1E08991682F812F0E94C3051F5FB1
S11307901D30C0F38091D001682F82E10E94C3050F
S11307A060E08BE00E94C3056FE382E40E94C3050E
S11307B061E180E00E94C30566EA8EE00E94C30501
S11307C08EE00E94FA0583FFFBCF66E28EE00E9472
S11307D0C30561EE80E00E94C3058091DB01682FB0
S11307E089E00E94C30560E08BE00E94C30566EACD
S11307F08EE00E94C305CEE08C2F0E94FA0583FF91
S1130800FACF66E28C2F0E94C30580E98093CB0166
S1130810682F8DE00E94C3058091DC01282F3327C7
S11308208FB7F894992720936B028FBF0E942D06EF
S11308308FB7F894992710925D028FBF8FB7F89401
S11308409927109281021092800210925C021092F9
S11308505B021092E3011092E2018FBF0E942D0609
S11308608FB7F8949927C6B917B88FBF8FB7F89484
S1130870482F5527209100013091010181E597E32C
S1130880289FB001299F700D389F700D1124CB0152
S11308908F5A984C909351028093500290937E0209
S11308A080937D0285E89FE0289FF001299FF00D49
S11308B0389FF00D1124CF018B57904F90939701DF
S11308C0809396014FBF0E94500580910001909142
S11308D00101909373028093720210927502109238
S11308E0700210926F02109212021092110221E013
S11308F030E040E050E060E0862F0E9448060E940D
S11309007F05109290008FE089B972E07BB9A6E070
S1130910A093950088ED8AB98FB7F89499276091D0
S113092092018FBF613009F07DC08FB7F894482FD2
S11309305527E0913602F0913702148270939201A8
S113094010928C01109290018FEF9FEF90933C02D4
S113095080933B02809113029927880F991FFC0111
S1130960E457FF4F24913327322F222783579F4F79
S1130970FC0184919927282B392B30939C012093D7
S11309809B014FBF80914102882369F56BE30E946C
S1130990C30580ED97E000000000000000000000A7
S11309A0000000000000019718161906A4F369E37B
S11309B080E00E94C30588EC90E000000000000085
S11309C0000000000000000000000197181619063E
S11309D0A4F3BB98BA980E94C70680EC8DB9B89866
S11309E00E94B5061FC09927880F991FFC01EF5577
S11309F0FF4F24913327322F22278E559F4FFC011E
S1130A0084919927282B392B8FB7F8949927A09391
S1130A1092018FBFC901AA27BB279C01AD01872F73
S1130A200E94480628EE33E040E050E060E081E0B8
S1130A300E944806109275020E94B506789490911F
S1130A40DF0180913502981719F480E090E01FC00F
S1130A508FB7F894282F33279091DF018091DF011D
S1130A608F5F8093DF018091DF0187708093DF01C6
S1130A70E92FFF27EE0FFF1FEA55FE4F808191817A
S1130A80108211822FBFFC01099581E090E0882338
S1130A90B1F685B7806285BF889500000000CFCF8E
S1130AA010927602109277021092780210927902D4
S1130AB0109238028FEF80937C0280938A01109207
S1130AC0A40183E08093390296EE909343028FB79A
S1130AD0F894282F332787B78E7F87BF87B78D7FFA
S1130AE087BF80B7886080BF8BE083BF12BE91BF91
S1130AF087B7826087BF2FBF81E090E008958FB7EA
S1130B00F894682F80E090E042E351E09C01F90101
S1130B10E80FF91FEC5BFD4F448355831282138267
S1130B20118201962B5F3F4F455D5F4F82309105E7
S1130B3074F310926A0210923302109232021092ED
S1130B4094011092930110920601109205011092E3
S1130B508901109288011092690210923F0210924A
S1130B606C0210929A01109299011092BA0110929B
S1130B70B901809148029091490290935602809362
S1130B8055026FBF0895880F949896E087FF02C0BE
S1130B90979A01C097989698969A880F915097FFC4
S1130BA0F5CF979A9698969A949A97E067FF02C021
S1130BB0979A01C097989698969A660F915097FFC6
S1130BC0F5CF949A979A969A81E090E0089580914F
S1130BD0CD01682F8FE00E94C3058091CE01682F5C
S1130BE080E10E94C3058091CF01682F81E10E94BA
S1130BF0C305089590E0880F949826E030E087FFBD
S1130C0002C0979A01C097989698969A880F215097
S1130C10304037FFF4CF27E030E097989698969AC3
S1130C208F98949A969840E050E0879941E0892FF4
S1130C30992721503040442329F0880F991F982F79
S1130C40916002C0982F990F969A37FFEBCF949A30
S1130C508F9A979A892F992708958FB7F894282FF8
S1130C6080919801882391F480E090E0EDE5F2E032
S1130C70819301968C309105DCF38EE180936702B9
S1130C808FE18093680281E0809398012FBF0895DB
S1130C90CF92DF92EF92FF920F931F93CF93DF9344
S1130CA079018A01833010F462301CF080E090E016
S1130CB053C0282F3327F901A3E0EE0FFF1FAA9595
S1130CC0E1F7E20FF31FEC5EFD4FE182F282038352
S1130CD0148360838FB7F894C82FDD2782B7E80E9A
S1130CE0F11C011D111DE582F6820783108771E056
S1130CF0C72ED12CC60102C0880F991F2A95E2F78E
S1130D009C01442737FD4095542F809176029091A1
S1130D107702A0917802B0917902822B932BA42BB5
S1130D20B52B8093760290937702A0937802B093C8
S1130D307902809143029927AA27BB27E816F9066E
S1130D400A071B0738F4E0924302E1BE109238020E
S1130D500E94B506CFBFC601DF91CF911F910F91BD
S1130D60FF90EF90DF90CF90089580910301882346
S1130D7029F480E19FE00E94B20206C085B7837E19
S1130D8085BF85B7806285BF80E090E0089561E10A
S1130D9080E00E94C3058091C701682F89E00E940A
S1130DA0C30560E08BE00E94C3058AEF90E0000079
S1130DB00000000000000000000000000000019797
S1130DC018161906A4F381E090E0089578941F9210
S1130DD00F920FB60F9211242F933F934F935F936B
S1130DE06F937F938F939F93AF93BF93EF93FF93EF
S1130DF08FB7F894282F33278091A501882369F0B1
S1130E00809134028093540288608093340283BFBB
S1130E108091B60181BF1092A5012FBF83E69EE0A9
S1130E200E94B202FF91EF91BF91AF919F918F9178
S1130E307F916F915F914F913F912F910F900FBED2
S1130E400F901F9018956F98B89AC0980E94B50695
S1130E5081E090E00895CF93C1E020E08FB7F8944B
S1130E60382F80916A02882391F580917F02992717
S1130E7081FF08C080E492E09093DE018093DD015D
S1130E8080E41AC082FF0FC0E0918801F0918901CB
S1130E90F093DE01E093DD0182E480938B01848191
S1130EA0992705960DC083FF12C081E991E09093C4
S1130EB0DE018093DD018FEF80938B0181E090E070
S1130EC090939401809393012C2FC0936A023FBFA7
S1130ED02223F1F08FB7F89499271092060110920B
S1130EE0050110923302109232028FBF8EE70E94E6
S1130EF08C07C82F813061F08FB7F894282F3327DF
S1130F0088E080936A022FBF81EA97E00E94B202D0
S1130F108C2F9927CF910895482F8FB7F894282FB5
S1130F20332790913A0281E080933A022FBF9923AC
S1130F3019F080E090E008954CB95E9A81E090E069
S1130F40089561E08FB7F894282F332780916A02BF
S1130F50883019F460E060936A022FBF80918B019E
S1130F6090917F02803451F48FB7F894282F33275F
S1130F7082E0982790937F022FBF17C08FB7F89411
S1130F80282F332784E0982790937F022FBF8091E6
S1130F908801909189010E94D8078FB7F894992706
S1130FA010928901109288018FBF0E942B07089527
S1130FB0FC01109275028281843049F480912F02E1
S1130FC0882329F0E750F14011F410922F0281E0B8
S1130FD090E008958FB7F894482F55272091500238
S1130FE030915102832F881F8827881F220F331FB7
S1130FF0882321F08BE090E1282739272F5F3F4F8A
S11310003093510220935002809196019091970160
S1131010282739274FBFC9010895FC0120910001F9
S113102030910101809111029091120201969093E6
S113103012028093110282A193A1019791F49381EA
S113104080910201981769F4808191814FEF8F3F5D
S1131050940719F08217930721F483E08C5F8B3295
S1131060E8F3CF0108951F920F920FB60F92112447
S1131070FF920F931F932F933F934F935F936F931D
S11310807F938F939F93AF93BF93CF93DF93EF930C
S1131090FF93C4B1D5B1D370349A379878948FB78D
S11310A0F894F82E80918002082F112721E030E077
S11310B0002E02C0220F331F0A94E2F780915B02D4
S11310C090915C0282239323892B61F420953095BF
S11310D08091E2019091E301822393239093E301B1
S11310E08093E2014091E2015091E30141155105E1
S11310F011F120918002309181022F5F3F4F2C30FB
S1131100310511F0C90102C080E090E09C0181E04A
S113111090E0022E02C0880F991F0A94E2F78423FC
S11311209523892B51F3309381022093800280917F
S113113080020E94E208FFBE0115110569F48FB711
S1131140F894282F3327D0933E02C0933D0281E0C8
S1131150809353022FBF01C080E099272FB7F894E2
S11311608823C9F461E070E002C0660F771F0A9516
S1131170E2F740915B0250915C02CA0186239723F7
S1131180892B49F0CB01809590954823592350939E
S11311905C0240935B022FBFFF91EF91DF91CF91EF
S11311A0BF91AF919F918F917F916F915F914F917B
S11311B03F912F911F910F91FF900F900FBE0F90B1
S11311C01F901895982F8FB7F894282F3327EDE5A3
S11311D0F2E0E90FF11D80818F7187B92FBF379A33
S11311E0369A81E090E008951F93CF93682F809101
S11311F06B028111609580919201482F55274230EE
S1131200510509F4ADC04330510524F4411551058D
S113121071F0B8C24430510509F47EC1443051051F
S11312200CF404C14530510509F4EEC1ABC2209160
S113123057028FB7F89499272093BD018FBF60910F
S11312406D0270916E026F5F7F4F70936E026093B8
S11312506D028091040199278430910559F18530FC
S1131260910534F48230910559F00397B1F06AC0C6
S11312708630910509F45EC006970CF44BC062C039
S113128080919B0190919C016817790708F47AC2B8
S113129083E38093570283E052C08CEC809357021F
S11312A084E0809304018FEF9FEF90936E0280930C
S11312B06D0268C280916D02282F332780919F01AF
S11312C09091A00128173907F8F4E0915902F091A0
S11312D05A02E60FF71F2081209357028091BB0129
S11312E09091BC01E7E7F1E02927220FF11DE20FFD
S11312F0F11DC895982F802D3196C895902590930F
S1131300BC018093BB013EC28091BB018093570214
S113131085E015C08091BB019091BC01892F99276C
S11313208093570286E08093040150936E024093A9
S11313306D0228C26430710508F424C287E08093EA
S1131340040120C2BB98BA980E94C706109290016B
S11313508AE89FE00E94B202882309F413C2AFC155
S11313606A3A11F0653571F520917A0230917B0269
S11313702F5F3F4F30937B0220937A02809141028A
S1131380E82FFF27E656FF4F84919927821793078A
S113139008F0F8C11092740210927B0210927A0243
S11313A01092E1011092E0011092A3011092BC018D
S11313B01092BB0182E290E090933102809330025C
S11313C084E07EC180919001882309F4DBC180917F
S11313D03B0290913C02019790933C0280933B0224
S11313E0181619060CF4CEC1109253028FB7F89454
S11313F0C82F2091E2013091E30120FD10C0C90102
S113140081609093E3018093E2012115310539F461
S1131410309381022093800280E00E94E208CFBFD3
S113142010927B0210927A0283E04AC16A3A09F46C
S11314305EC0653509F45BC080915302882309F4CA
S1131440A1C180914102E82FFF27EA54FF4F849104
S1131450282F332780913D0290913E0228173907A7
S113146008F045C061EE80E00E94C3058091DB0175
S1131470682F89E00E94C3058AEF90E00000000015
S11314800000000000000000000000000197181692
S11314901906A4F38091C901682F8BE00E94C3054B
S11314A084E190E000000000000000000000000063
S11314B000000000019718161906A4F3BB9ABA9A03
S11314C010926E0210926D021092BC011092BB0138
S11314D01092920182E0809304012AEA2093570239
S11314E08FB7F89499272093BD018FBF4BC10E94F9
S11314F0EA078F70907024E230E0829FA001839FFE
S1131500500D929F500D1124CA01820F931F909386
S11315103C0280933B02D3C06A3A11F0653519F45A
S11315206093B8012FC1809174029927009721F02C
S113153003970CF060C003C06093B7015FC02091B3
S1131540B7013091B801922F88279093B801809306
S1131550B7016093B70110E0220F331F67FD2160CC
S1131560660F53E32C3C350709F040C0E091360286
S1131570F091370244814423B9F08FB7F894382F9F
S11315802091580220FF06C08FB7F8949927DA9A61
S11315902E7F05C08FB7F8949927DA98216020939D
S11315A058028FBF3FBF27C085E0809392018FB759
S11315B0F894C82F2091E2013091E30120FD10C07E
S11315C0C90181609093E3018093E2012115310503
S11315D039F43093810220938002842F0E94E20820
S11315E0CFBF87E0811B8093A30108C01F5F183021
S11315F008F4B2CF03C082E0809392018091740218
S11316008F5F80937402BEC08091B7019091B8013E
S1131610982F88279093B8018093B7016093B701FE
S11316202091B7013091B8010090A30102C0369512
S113163027950A94E2F7622FE0913602F09137027F
S11316408091E0019091E101E80FF91F208340911E
S1131650E0015091E1014F5F5F4F5093E1014093EE
S1131660E00180913002909131024817590798F5B2
S11316708091BB019091BC01E7E7F1E06927660F17
S1131680F11DE60FF11DC895982F802D3196C89550
S113169090259093BC018093BB014530510509F01E
S11316A071C0E0913602F0913702848199279093BA
S11316B03102809330028E31910528F0148282E049
S11316C0809392015FC00097F1F0059690933102E8
S11316D08093300257C048175907E1F48091BB0149
S11316E09091BC01E7E7F1E06927660FF11DE60F71
S11316F0F11DC895982F802D3196C895902590930B
S1131700BC018093BB0182E290E09093E10180935D
S1131710E00138C044325105A8F1E0913602F0915D
S1131720370222A133A18091BB019091BC012817FB
S1131730390729F481E090E082A393A302C012A2A6
S113174013A20E942307C2E0C0939201E0913602E3
S1131750F091370280913D0290913E0284A395A3BB
S113176088E49FE00E94B202882361F4E09136028B
S1131770F09137028483C093920180EC8DB9B898BC
S11317800E94B50681E090E0CF911F910895382F13
S11317908091690299278230910509F46BC08330E6
S11317A091052CF4009759F0019781F1B7C183306A
S11317B0910509F49CC0049709F459C1AFC13E379F
S11317C009F0AEC180913F029927FC01EE0FFF1F83
S11317D0EE0FFF1FE80FF91FE80FF91FEC5BFD4F39
S11317E082819381009709F09BC111829093BA0181
S11317F08093B90190939A01809399018481958192
S1131800909356028093550281E085C13E3709F4D6
S113181087C180913F029927FC01EE0FFF1FEE0F55
S1131820FF1FE80FF91FE80FF91FEC5BFD4F308332
S11318308091B9019091BA01E7E7F1E0232F2927BC
S1131840220FF11DE20FF11DC895982F802D3196BE
S1131850C89590259093BA018093B901832F992755
S11318608134910529F08234910509F453C156C19C
S113187082E051C13E3709F451C160913F023D37C6
S113188081F4862F9927FC01EE0FFF1FEE0FFF1F37
S1131890E80FF91FE80FF91FEC5BFD4F80E281832D
S11318A03FC1862F9927FC01EE0FFF1FEE0FFF1F8C
S11318B0E80FF91FE80FF91FEC5BFD4F2181232787
S11318C021838091B9019091BA01E7E7F1E02927DA
S11318D0220FF11DE20FF11DC895982F802D31962E
S11318E0C89590259093BA018093B90113C1409192
S11318F0990150919A014C32510508F0BAC03D3714
S113190011F484E008C13E3709F07FC0423051052C
S113191008F45FC0E0915502F0915602E40FF51F00
S113192082919927382F222782919927282B392BA6
S11319308091B9019091BA0160913F02281739074B
S1131940E1F4862F9927FC01EE0FFF1FEE0FFF1F16
S1131950E80FF91FE80FF91FEC5BFD4F42505040B0
S1131960428353838FE99FE00E94B20280913F0239
S11319708F5F817080933F0210C0862F9927FC01EE
S1131980EE0FFF1FEE0FFF1FE80FF91FE80FF91FFF
S1131990EC5BFD4F12821382118280913F029927E2
S11319A0FC01EE0FFF1FEE0FFF1FE80FF91FE80FFA
S11319B0F91FEC5BFD4F82819381892BD9F48481DB
S11319C09581909356028093550281E08093690239
S11319D013C080913F029927FC01EE0FFF1FEE0F09
S11319E0FF1FE80FF91FE80FF91FEC5BFD4F128290
S11319F013821182109269021092BA011092B901F5
S1131A0010929A01109299018BC0E0915502F091C5
S1131A105602E40FF51F30834091990150919A01C9
S1131A2042305105E8F02091B9013091BA01E091BA
S1131A305502F0915602E40FF51F32978081E7E7D3
S1131A40F1E08327880FF11DE80FF11DC895322FAF
S1131A50202D3196C89530253093BA012093B901D1
S1131A604F5F5F4F50939A014093990159C03E379D
S1131A70D1F41092BA011092B90110929A01109205
S1131A80990180913F029927FC01EE0FFF1FEE0F91
S1131A90FF1FE80FF91FE80FF91FEC5BFD4F1282DF
S1131AA0138211823BC080E28327E0915502F091BA
S1131AB056022091990130919A01E20FF31F80831D
S1131AC04091990150919A0142305105E8F02091DA
S1131AD0B9013091BA01E0915502F0915602E40F38
S1131AE0F51F32978081E7E7F1E08327880FF11D26
S1131AF0E80FF11DC895322F202D3196C895302559
S1131B003093BA012093B9014F5F5F4F50939A010C
S1131B104093990183E08093690202C010926902A4
S1131B2081E090E008958FB7F894992720913A02C4
S1131B3010923A028FBF222309F4A4C080916A0252
S1131B40873031F410926A0281EA97E00E94B2026F
S1131B5021E080916A0299278430910509F46EC0CE
S1131B608530910554F48230910561F183309105FB
S1131B700CF058C0019749F07CC08630910509F4F7
S1131B8071C006970CF463C074C082E080936A024B
S1131B90209105013091060180918B01E7E7F1E086
S1131BA08327880FF11DE80FF11DC895322F202DD2
S1131BB03196C89530253093060120930501809114
S1131BC08B0154C0E091DD01F091DE0120913202DD
S1131BD030913302E20FF31F5081809105019091FF
S1131BE00601E7E7F1E0452F4927440FF11DE40F13
S1131BF0F11DC895982F802D3196C8959025909306
S1131C000601809305012F5F3F4F309333022093E9
S1131C10320280919301909194012817390798F02A
S1131C2084E00FC08091710290E289270E948C07A2
S1131C30282F8091520280936A021BC050910501A3
S1131C4085E080936A02852F0E94450E11C0809121
S1131C50050190910601292F332786E080936A02BB
S1131C60822FF2CF87E080936A028EE70E948C076E
S1131C70282F213039F088E080936A0281EA97E0C6
S1131C800E94B20281E090E00895982F8D5782302F
S1131C9078F48FB7F894282F332780916A028093C1
S1131CA0520283E080936A02909371022FBF9DE7F2
S1131CB0892F0E948C07992708958FBF08958FB7A5
S1131CC0F894992708958F929F92AF92BF92DF92D2
S1131CD0EF92FF920F931F93CF93DF9381E0809352
S1131CE038028091760290917702A0917802B091A7
S1131CF079020097A105B10509F484C0DD2404E14B
S1131D0012E0EE24FF2461E070E00E2C02C0660FA6
S1131D10771F0A94E2F7CB01AA2797FDA095BA2F63
S1131D208090760290907702A0907802B090790229
S1131D3088219921AA21BB210097A105B10509F4A5
S1131D4057C08091430299270196AA2797FDA09531
S1131D50BA2FF8012581368147815085281B390B1C
S1131D604A0B5B0B25833683478350872330310529
S1131D7041055105ECF58081882369F481819281C4
S1131D80A381B481280F391F4A1F5B1F2583368323
S1131D904783508713C0CB0180959095AA2797FD60
S1131DA0A095BA2F88229922AA22BB228092760279
S1131DB090927702A0927802B092790280917C028C
S1131DC0823019F48FEF80937C0290917C029F5FA4
S1131DD090937C028091A4018F5F8093A401E92FEA
S1131DE0FF27E357FE4FD08281E190E10E94B202C7
S1131DF0D3940894E11CF11C075F1F4FF2E0FD151A
S1131E0008F081CF0E94DB01DF91CF911F910F91E8
S1131E10FF90EF90DF90BF90AF909F908F900895C8
S1131E2087B799278C7F009719F080E090E01AC05B
S1131E306F9918C0379B03C088E090E013C087B740
S1131E40992783709070892B59F081B792B7891BB9
S1131E50803118F48CE190E005C088E190E002C084
S1131E6080E190E0382F25B7237E8C3121F0883132
S1131E7011F008C0000080B7992787709070892BF3
S1131E80C9F7237E232B25BF85B7806285BF0895BC
S1131E908FB7F894682F7727E0913602F0913702D4
S1131EA017A210A684A195A19C01220F331F220F13
S1131EB0331F280F391F40910F0250911002CA019D
S1131EC0880F991F840F951F280F391F73E03695CB
S1131ED027957A95E1F73093100220930F026FBF94
S1131EE0CF010E940D089C018FB7F8949927211502
S1131EF0310521F03093370220933602E091360207
S1131F00F091370214828FBF80EC8DB9B8980E948B
S1131F10B50608958FB7F8949927E0915902F09186
S1131F205A0217A210A68FBF61E0CF010E94D80702
S1131F308FB7F894992710928C018FBF08950F934F
S1131F401F93CF93DF9390916C0286E0989F80015A
S1131F5011240C5B1D4FF801C481D58182819381CA
S1131F60059780F12081822F99278134910559F0BA
S1131F708234910524F48034910521F11DC082340A
S1131F80910571F019C081E090E08AA39BA3F80148
S1131F908181809342028BEF9FE00E94B20204C0D1
S1131FA081E090E08AA39BA3809102018B83CE0100
S1131FB00E940D08EC0106C02093910183E092E198
S1131FC00E94B2028FB7F894282F3327209719F074
S1131FD0F801C483D583F80112821382118280919F
S1131FE06C028F5F817080936C022FBFDF91CF9161
S1131FF01F910F9108952091420231E08FB7F89418
S113200090917F0291FD06C0926090937F0220938D
S1132010400201C030E08FBF313011F40E942B0721
S11320200895FF920F931F93CF93DF939091A40190
S1132030992319F483E090E015C080918A018230DD
S113204019F48FEF80938A0180918A018F5F8093C6
S11320508A0191509093A401E82FFF27E357FE4F84
S113206080819927833008F00CC1C82FDD27C13047
S1132070D10509F46AC0C230D1051CF4209729F0B7
S113208000C1229709F46EC0FCC080912F028823FE
S113209009F0F7C001E000932F028FB7F894282FBE
S11320A03327809100019091010190930D01809359
S11320B00C012FBF14E0F12E10917502112339F594
S11320C00093750287E491E10E94B202882319F417
S11320D0109375021CC087E091E09093A201809355
S11320E0A101F0920B018FEF9FEF90930801809371
S11320F00701F09209018091020180930A01802F67
S11321008E5F8C5F8B32E8F381E090E001C0CE01FA
S113211099278823B9F08FB7F894382F2091580263
S113212022FF06C08FB7F8949927D89A2B7F05C051
S11321308FB7F8949927D8982460209358028FBFBA
S11321403FBF9FC080932F029CC080911102909149
S113215012029093700280936F02109212021092F6
S113216011028FC0E0914102EE2309F48AC08FB7B7
S1132170F894992720919201109190018FBF3327F1
S11321802230310521F02630310591F172C08E2FB5
S11321909927880F991FFC01EF55FF4F249133278E
S11321A0D22FCC278E559F4FFC0184919927C82BA1
S11321B0D92B112309F05DC08FB7F894282F33274A
S11321C086E0809392012FBFCE01AA27BB279C01F2
S11321D0AD0161E082E00E944806612F8BE00E941D
S11321E0C3056FE3812F0E94C3050E94230749C0E2
S11321F0FF27E155FF4F8491C82FDD278FB7F8944F
S1132200282F332782E0809392012FBF6BE380E075
S11322100E94C30580ED97E000000000000000006C
S11322200000000000000000019718161906A4F32E
S113223069E380E00E94C30588EC90E000000000A0
S113224000000000000000000000000001971816C4
S11322501906A4F3BB98BA980E94C70680EC8DB9FE
S1132260B8980E94B506CE01AA27BB279C01AD01F0
S113227004C020E230E040E050E061E082E00E94EF
S11322804806DF91CF911F910F91FF9008951F93FE
S1132290CF93E091A101F091A201808191818E37C9
S11322A09105C1F461E08FB7F89490917F0292FD9B
S11322B008C0946090937F02F0938901E0938801B1
S11322C001C060E08FBF613009F092C00E942B070B
S11322D0682F8EC011E08FB7F894C82F80918C01BD
S11322E0882311F010E018C010938C01F0935A0267
S11322F0E09359028481992705969093A0018093D5
S11323009F010E94EA078F779070849690933C0215
S113231080933B0210939001CFBF112309F467C04F
S11323208FB7F8949927209192018FBF263009F036
S11323305EC040917602509177026091780270916C
S1132340790242FF17C08FB7F894282F3327DB0197
S1132350CA018B7F8093760290937702A0937802D0
S1132360B09379022FBF0097A105B10519F481E05C
S1132370809338026BE380E00E94C30580ED97E010
S11323800000000000000000000000000000000049
S1132390019718161906A4F369E380E00E94C305A7
S11323A088EC90E000000000000000000000000045
S11323B000000000019718161906A4F30E94C7062E
S11323C0BB98BA9880EC8DB9B8980E94B50620E203
S11323D030E040E050E061E082E00E9448068FB7C0
S11323E0F894282F332782E0809392012FBF612F26
S11323F0662331F48091A1019091A2010E94D80733
S1132400CF911F9108958FB7F894282F3327809187
S11324107F02886080937F022FBF0E942B0708955C
S107242001007D0135
S9030000FC
