S01800006275696C642F6D696361322F6D61696E2E737265632D
S11300000C94BC010C94D9010C94D9010C94D90121
S11300100C94D9010C94D9010C94D9010C94D901F4
S11300200C94D9010C94D9010C94D9010C94D901E4
S11300300C94D9010C94D9010C94D9010C94170C8B
S11300400C94D9010C94DB010C9463020C94D90137
S11300500C948D020C947B080C94D9010C94D90156
S11300600C94D9010C94D9010C94D9010C94D901A4
S11300700C94D9010C94D9010C94D9010C94D90194
S11300800C94D9010C94D9010C94D901001C005E84
S113009000FA017301EA04BC0A5E050202020202CC
S11300A002000000140055008700B901E5043D007A
S11300B0080808080808AEEFEFEFEFEFEF3158003B
S11300C00057F685035544020F60E0261C6F5570F7
S11300D0010000000000000000008101317C0000EC
S11300E07BF9AE02388C3280401026A16F55100186
S11300F0000000000000000000F301315100005036
S1130100F74F030E44020F58E026A16F557001000B
S113011000000000000000008101315CE0005CDBB5
S11301204201AA8C3280301026A16F5510010000C4
S113013000000000000000F301314560004555BB9C
S1130140039C80020F68E026A16F54700100000038
S113015000000000000081013158000057F68503BB
S11301605590020F60E026A16F5570010000000059
S1130170000000000081010000211042206330844F
S113018040A550C660E770088129914AA16BB18CE3
S1130190C1ADD1CEE1EFF13112100273325222B56A
S11301A0529442F772D662399318837BB35AA3BD33
S11301B0D39CC3FFF3DEE36224433420040114E63A
S11301C064C774A44485546AA54BB528850995EE83
S11301D0E5CFF5ACC58DD55336722611163006D74A
S11301E076F6669556B4465BB77AA719973887DFD3
S11301F0F7FEE79DD7BCC7C448E5588668A7784092
S113020008611802282338CCC9EDD98EE9AFF94822
S11302108969990AA92BB9F55AD44AB77A966A71A9
S11302201A500A333A122AFDDBDCCBBFFB9EEB7972
S11302309B588B3BBB1AABA66C877CE44CC55C22F9
S11302402C033C600C411CAEED8FFDECCDCDDD2AC2
S1130250AD0BBD688D499D977EB66ED55EF44E1389
S11302603E322E511E700E9FFFBEEFDDDFFCCF1B12
S1130270BF3AAF599F788F8891A981CAB1EBA10C7D
S1130280D12DC14EF16FE18010A100C230E32004F2
S113029050254046706760B9839893FBA3DAB33D59
S11302A0C31CD37FE35EF3B1029012F322D2323542
S11302B042145277625672EAB5CBA5A89589856E29
S11302C0F54FE52CD50DC5E234C324A01481046692
S11302D074476424540544DBA7FAB79987B8975F39
S11302E0E77EF71DC73CD7D326F2369106B01657E2
S11302F0667676154634564CD96DC90EF92FE9C881
S113030099E9898AB9ABA94458654806782768C031
S113031018E1088238A3287DCB5CDB3FEB1EFBF998
S11303208BD89BBBAB9ABB754A545A376A167AF181
S11303300AD01AB32A923A2EFD0FED6CDD4DCDAAE8
S1130340BD8BADE89DC98D267C076C645C454CA2D1
S11303503C832CE01CC10C1FEF3EFF5DCF7CDF9B78
S1130360AFBABFD98FF89F176E367E554E745E9321
S11303702EB23ED10EF01E0011241FBECFEFD0E1ED
S1130380DEBFCDBF11E0A0E0B1E0E4E6F4E200E0BE
S11303900BBF02C007900D92A430B107D9F712E049
S11303A0A4E0B1E001C01D92A737B107E1F70C94B6
S11303B0DA020C9400001F920F920FB60F921124D0
S11303C02F933F934F935F936F937F938F939F9359
S11303D0AF93BF93EF93FF939FB18091BC018FB90B
S11303E0892F0E943C09FF91EF91BF91AF919F919A
S11303F08F917F916F915F914F913F912F910F90CA
S11304000FBE0F901F901895AF92BF92CF92DF92BC
S1130410EF92FF920F931F93CF93DF9386EEF82E04
S1130420A0906B02B0906C02C0906D02D0906E02EE
S1130430A114B104C104D10481F1EE2463E172E09A
S113044000E010E081E090E0002E02C0880F991FC8
S11304500A94E2F7AA2797FDA095BA2F8A219B2137
S1130460AC21BD210097A105B10579F02F2D3327CB
S113047044275527FB0185819681A781B085821782
S11304809307A407B5070CF4F580E3940F5F1F4F9F
S1130490675F7F4FF1E0FE15A8F68FB7F8949927B0
S11304A0F0923802F1BE10922D028FBF0E946406B2
S11304B0DF91CF911F910F91FF90EF90DF90CF903C
S11304C0BF90AF9008951F920F920FB60F92112410
S11304D02F933F934F935F936F937F938F939F9348
S11304E0AF93BF93EF93FF935F9B06C08CB140E043
S11304F050E060E00E94540CFF91EF91BF91AF91E6
S11305009F918F917F916F915F914F913F912F9127
S11305100F900FBE0F901F90189578941F920F9212
S11305200FB60F9211242F933F934F935F936F93C2
S11305307F938F939F93AF93BF93EF93FF930E9407
S1130540200EFF91EF91BF91AF919F918F917F9179
S11305506F915F914F913F912F910F900FBE0F902C
S11305601F901895AC018FB7F894282F3327E0918A
S11305702A0280912A028F5F80932A0280912A02A4
S1130580877080932A0290912A028091DE01981745
S113059059F02FBFFF27EE0FFF1FE658FE4F408391
S11305A0518381E090E00895E0932A022FBF80E018
S11305B090E00895CFEFD0E1DEBFCDBFD29AD09ABC
S11305C0D19AD698A79AA69AA59AA49AA39AA29AD7
S11305D0A19AA09A8C9A8F9A8E9ABB98BF98D49815
S11305E0DC98D39A8B9A8D9ADB9ADA9AD89AD99A0C
S11305F083E08C5F8739E8F310E08AE08093690137
S113060010932A021093DE018FB7F8949927109360
S11306104D02DA9AD89AD99A8FBF8FB7F89499274E
S1130620DA9A8FBF8FB7F8949927D89A8FBF8FB76C
S1130630F8949927D99A8FBF0E944D050E947C0592
S11306408FB7F894992710932F028FBF8FB7F89420
S1130650282F332781E090E080936601812F8E5FFD
S11306608093040183EE91E090932C0280932B02FB
S11306701093E70182E290E0909326028093250292
S1130680109377011092700210926F02109272010F
S11306901092710110928C0110928B0110936401DD
S11306A010936101109348028FEF9FEF90933102F2
S11306B0809330029093330280933202109312029B
S11306C010933602E6EBF0E08491992790930F02A1
S11306D080930E022FBF8FB7F8949927B998BB98CF
S11306E0BA986B986A986F9A6E9A8FBFD6988C9ABC
S11306F08E9A8F9A949A979A969A6AE3812F0E9477
S1130700C0056BE3812F0E94C00580ED97E00000D7
S1130710000000000000000000000000000001973D
S113072018161906A4F380E88093C801682F8BE09B
S11307300E94C00580E98093CA01682F84E00E946A
S1130740C0051092CC018FE68093CD0185E580939E
S1130750CE010E94E40511E01093D001612F83E1E2
S11307600E94C0051093DB01AEEBB1E0EDEDF0E0CB
S11307702DE130E084918D9321503040319637FF44
S1130780F9CF0E94E40511E0CEEBD1E08991682F06
S1130790812F0E94C0051F5F1D30C0F38091CF01DF
S11307A0682F82E10E94C00560E08BE00E94C005D2
S11307B06FE382E40E94C00561E180E00E94C0050D
S11307C066EA8EE00E94C0058EE00E94F70583FF72
S11307D0FBCF66E28EE00E94C00561EE80E00E94DD
S11307E0C0058091DA01682F89E00E94C00560E0AD
S11307F08BE00E94C00566EA8EE00E94C005CEE050
S11308008C2F0E94F70583FFFACF66E28C2F0E949B
S1130810C00580E98093CA01682F8DE00E94C0055D
S11308208091DB01282F33278FB7F89499272093E1
S113083060028FBF0E942A068FB7F89499271092FE
S113084052028FBF8FB7F8949927109276021092B4
S1130850750210925102109250021092E20110920D
S1130860E1018FBF0E942A068FB7F8949927C6B971
S113087017B88FBF8FB7F894482F552720910001E0
S11308803091010181E597E3289FB001299F700D04
S1130890389F700D1124CB018F5A984C90934602C7
S11308A080934502909373028093720285E89FE0DF
S11308B0289FF001299FF00D389FF00D1124CF01DE
S11308C08B57904F90936B0180936A014FBF0E94A6
S11308D04D058091000190910101909368028093ED
S11308E0670210926A0210926502109264021092DA
S11308F01102109210020E947C05109290008FE069
S113090089B922E02BB966E06093950088ED8AB935
S11309108FB7F8949927709166018FBF713009F0F1
S11309207EC08FB7F894482F5527E0912B02F091A1
S11309302C021482209366011092610110926401CA
S11309408FEF9FEF909331028093300280911202D7
S11309509927880F991FFC01E457FF4F24913327EF
S1130960322F222783579F4FFC0184919927282BEC
S1130970392B3093700120936F014FBF8091360261
S1130980882369F56BE30E94C00580ED97E00000C1
S113099000000000000000000000000000000197BB
S11309A018161906A4F369E380E00E94C00588ECD8
S11309B090E00000000000000000000000000000C3
S11309C00000019718161906A4F3BB98BA980E9460
S11309D0450680EC8DB9B8980E94640620C099271A
S11309E0880F991FFC01EF55FF4F24913327322FB5
S11309F022278E559F4FFC0184919927282B392B50
S1130A008FB7F8949927609366018FBFC901AA270D
S1130A10BB279C01AD01672F872F0E94760628EE25
S1130A2033E040E050E060E0862F0E9476061092AA
S1130A306A020E94640678949091DE0180912A02F1
S1130A40981719F480E090E01FC08FB7F894282F0E
S1130A5033279091DE018091DE018F5F8093DE0168
S1130A608091DE0187708093DE01E92FFF27EE0F6E
S1130A70FF1FE658FE4F80819181108211822FBFA3
S1130A80FC01099581E090E08823B1F685B7806286
S1130A9085BF889500000000CFCF10926B021092A2
S1130AA06C0210926D0210926E0210922D028FEF62
S1130AB08093710280935F011092780183E08093A8
S1130AC02E0296EE909338028FB7F894282F33278E
S1130AD087B78E7F87BF87B78D7F87BF80B78860D2
S1130AE080BF8BE083BF12BE91BF87B7826087BF90
S1130AF02FBF81E090E008958FB7F894682F80E0CD
S1130B0090E047E051E09C01F901E80FF91FE75C30
S1130B10FD4F4483558312821382118201962B5F09
S1130B203F4F455D5F4F8230910574F310925F0231
S1130B301092280210922702109268011092670105
S1130B40109206011092050110925E0110925D014F
S1130B5010925E02109234021092610210926E01A1
S1130B6010926D0110928E0110928D0180913D02C0
S1130B7090913E0290934B0280934A026FBF089576
S1130B80880F949896E087FF02C0979A01C09798BF
S1130B909698969A880F915097FFF5CF979A9698C2
S1130BA0969A949A97E067FF02C0979A01C0979823
S1130BB09698969A660F915097FFF5CF949A979AC4
S1130BC0969A81E090E008958091CC01682F8FE09F
S1130BD00E94C0058091CD01682F80E10E94C0056C
S1130BE08091CE01682F81E10E94C005089590E0B4
S1130BF0880F949826E030E087FF02C0979A01C0DE
S1130C0097989698969A880F2150304037FFF4CFE2
S1130C1027E030E097989698969A8F98949A9698A9
S1130C2040E050E0879941E0892F992721503040D6
S1130C30442329F0880F991F982F916002C0982FA0
S1130C40990F969A37FFEBCF949A8F9A979A892F98
S1130C50992708958FB7F894282F80916C018823E1
S1130C6091F480E090E0E2E5F2E0819301968C302B
S1130C709105DCF38EE180935C028FE180935D0249
S1130C8081E080936C012FBF089561E180E00E94B0
S1130C90C0058091C601682F89E00E94C00560E00C
S1130CA08BE00E94C0058AEF90E000000000000085
S1130CB0000000000000000000000197181619064B
S1130CC0A4F381E090E0089580910301882329F43E
S1130CD080EB90E10E94B20206C085B7837E85BF97
S1130CE085B7806285BF80E090E00895CF92DF925F
S1130CF0EF92FF920F931F93CF93DF9379018A01B1
S1130D00823010F462301CF080E090E053C0282F51
S1130D103327F901A3E0EE0FFF1FAA95E1F7E20FD5
S1130D20F31FED5EFD4FE182F2820383148360833F
S1130D308FB7F894C82FDD2782B7E80EF11C011D88
S1130D40111DE582F6820783108771E0C72ED12C2E
S1130D50C60102C0880F991F2A95E2F79C01442717
S1130D6037FD4095542F80916B0290916C02A091B5
S1130D706D02B0916E02822B932BA42BB52B809322
S1130D806B0290936C02A0936D02B0936E028091FB
S1130D9038029927AA27BB27E816F9060A071B0772
S1130DA038F4E0923802E1BE10922D020E946406EB
S1130DB0CFBFC601DF91CF911F910F91FF90EF90AC
S1130DC0DF90CF9008950F931F93CF93DF93EC019F
S1130DD02091000130910101809110029091110243
S1130DE0019690931102809310028AA19BA101970E
S1130DF009F0A6C09B8180910201981709F0A0C058
S1130E00888199814FEF8F3F940721F082179307D0
S1130E1009F096C09A8183E08C5F8B32E8F39430BA
S1130E2009F08AC08F8198852D813E819093970126
S1130E308093960130939501209394018CA19DA1F8
S1130E40909399018093980147E050E0421B530B23
S1130E5011F0AA9A01C0AA9820914D02BA016270B9
S1130E60707040FF06C08FB7F8949927D898246013
S1130E7005C08FB7F8949927D89A2B7F20934D02F9
S1130E808FBF20914D0244705070672B31F08FB7A3
S1130E90F8949927D998226005C08FB7F8949927B8
S1130EA0D99A2D7F20934D028FBF20914D0200913E
S1130EB06A02452B31F08FB7F8949927DA982160AC
S1130EC005C08FB7F8949927DA9A2E7F20934D02A4
S1130ED08FBF002351F511E010936A0280EF9EE06A
S1130EE00E94B202882319F400936A021EC08FE89C
S1130EF091E0909376018093750186E0809393014D
S1130F008EE790E09093900180938F0184E080932A
S1130F1091018091020180939201812F8E5F8C5FF9
S1130F208B32E8F381E090E002C080E090E0892B0E
S1130F3019F480E090E001C0CE01009709F0EC01C3
S1130F40CE01DF91CF911F910F910895CF93C1E00E
S1130F5020E08FB7F894382F80915F02882391F5B1
S1130F6080917402992781FF08C085E392E09093F1
S1130F70DD018093DC0180E41AC082FF0FC0E091A0
S1130F805D01F0915E01F093DD01E093DC0182E408
S1130F90809360018481992705960DC083FF12C058
S1130FA085E691E09093DD018093DC018FEF8093DF
S1130FB0600181E090E090936801809367012C2F99
S1130FC0C0935F023FBF2223F1F08FB7F8949927B3
S1130FD01092060110920501109228021092270225
S1130FE08FBF8EE70E940708C82F813061F08FB74A
S1130FF0F894282F332788E080935F022FBF8CE179
S113100098E00E94B2028C2F9927CF910895482F1F
S11310108FB7F894282F332790912F0281E0809383
S11310202F022FBF992319F080E090E008954CB966
S11310305E9A81E090E0089561E08FB7F894282FDC
S1131040332780915F02883019F460E060935F0277
S11310502FBF8091600190917402803451F48FB756
S1131060F894282F332782E09827909374022FBF97
S113107017C08FB7F894282F332784E098279093CC
S113108074022FBF80915D0190915E010E9453080C
S11310908FB7F894992710925E0110925D018FBF6B
S11310A00E94A607089510926A0281E090E00895D4
S11310B08FB7F894482F5527209145023091460266
S11310C0832F881F8827881F220F331F882321F02E
S11310D08BE090E1282739272F5F3F4F309346025A
S11310E02093450280916A0190916B01282739274A
S11310F04FBFC90108951F920F920FB60F9211248A
S1131100FF920F931F932F933F934F935F936F938C
S11311107F938F939F93AF93BF93CF93DF93EF937B
S1131120FF93C4B1D5B1D370349A379878948FB7FC
S1131130F894F82E80917502082F112721E030E0F1
S1131140002E02C0220F331F0A94E2F7809150024E
S11311509091510282239323892B61F42095309539
S11311608091E1019091E201822393239093E20123
S11311708093E1014091E1015091E2014115510553
S113118011F120917502309176022F5F3F4F2C3080
S1131190310511F0C90102C080E090E09C0181E0BA
S11311A090E0022E02C0880F991F0A94E2F784236C
S11311B09523892B51F33093760220937502809105
S11311C075020E942A09FFBE0115110569F48FB743
S11311D0F894282F3327D0933302C093320281E04E
S11311E0809348022FBF01C080E099272FB7F8945D
S11311F08823C9F461E070E002C0660F771F0A9586
S1131200E2F74091500250915102CA01862397237C
S1131210892B49F0CB01809590954823592350930D
S11312205102409350022FBFFF91EF91DF91CF9174
S1131230BF91AF919F918F917F916F915F914F91EA
S11312403F912F911F910F91FF900F900FBE0F9020
S11312501F901895982F8FB7F894282F3327E2E51D
S1131260F2E0E90FF11D80818F7187B92FBF379AA2
S1131270369A81E090E008951F93CF93682F809170
S113128060028111609580916601482F5527423094
S1131290510509F4ADC04330510524F441155105FD
S11312A071F0B8C24430510509F47EC1443051058F
S11312B00CF404C14530510509F4EEC1ABC22091D0
S11312C04C028FB7F89499272093BC018FBF60918B
S11312D06202709163026F5F7F4F70936302609349
S11312E062028091040199278430910559F1853077
S11312F0910534F48230910559F00397B1F06AC036
S11313008630910509F45EC006970CF44BC062C0A8
S113131080916F01909170016817790708F47AC27F
S113132083E380934C0283E052C08CEC80934C02A4
S113133084E0809304018FEF9FEF90936302809386
S1131340620268C280916202282F33278091730160
S11313509091740128173907F8F4E0914E02F09146
S11313604F02E60FF71F208120934C028091BA01AF
S11313709091BB01E7E7F1E02927220FF11DE20F6D
S1131380F11DC895982F802D3196C895902590937E
S1131390BB018093BA013EC28091BA0180934C0292
S11313A085E015C08091BA019091BB01892F9927DE
S11313B080934C0286E0809304015093630240932F
S11313C0620228C26430710508F424C287E0809365
S11313D0040120C2BB98BA980E9445061092640189
S11313E08EEE9FE00E94B202882309F413C2AFC1BB
S11313F06A3A11F0653571F520916F0230917002EF
S11314002F5F3F4F3093700220936F02809136021A
S1131410E82FFF27E656FF4F8491992782179307F9
S113142008F0F8C1109269021092700210926F02D3
S11314301092E0011092DF01109277011092BB012B
S11314401092BA0182E290E09093260280932502E2
S113145084E07EC180916401882309F4DBC180911A
S113146030029091310201979093310280933002BF
S1131470181619060CF4CEC1109248028FB7F894CE
S1131480C82F2091E1013091E20120FD10C0C90173
S113149081609093E2018093E1012115310539F4D3
S11314A0309376022093750280E00E942A09CFBF10
S11314B01092700210926F0283E04AC16A3A09F4F2
S11314C05EC0653509F45BC080914802882309F445
S11314D0A1C180913602E82FFF27EA54FF4F84917F
S11314E0282F33278091320290913302281739072D
S11314F008F045C061EE80E00E94C0058091DA01E9
S1131500682F89E00E94C0058AEF90E00000000087
S11315100000000000000000000000000197181601
S11315201906A4F38091C801682F8BE00E94C005BE
S113153084E190E0000000000000000000000000D2
S113154000000000019718161906A4F3BB9ABA9A72
S113155010926302109262021092BB011092BA01BF
S11315601092660182E0809304012AEA20934C02DF
S11315708FB7F89499272093BC018FBF4BC10E9469
S113158058088F70907024E230E0829FA001839FFE
S1131590500D929F500D1124CA01820F931F9093F6
S11315A0310280933002D3C06A3A11F0653519F4E0
S11315B060938C012FC1809169029927009721F0D3
S11315C003970CF060C003C060938B015FC020914F
S11315D08B0130918C01922F882790938C018093FA
S11315E08B0160938B0110E0220F331F67FD216094
S11315F0660F53E32C3C350709F040C0E0912B0201
S1131600F0912C0244814423B9F08FB7F894382F19
S113161020914D0220FF06C08FB7F8949927DA9ADB
S11316202E7F05C08FB7F8949927DA98216020930C
S11316304D028FBF3FBF27C085E0809366018FB7FF
S1131640F894C82F2091E1013091E20120FD10C0EF
S1131650C90181609093E2018093E1012115310574
S113166039F43093760220937502842F0E942A095C
S1131670CFBF87E0811B8093770108C01F5F1830BC
S113168008F4B2CF03C082E08093660180916902BE
S11316908F5F80936902BEC080918B0190918C0111
S11316A0982F882790938C0180938B0160938B01F2
S11316B020918B0130918C010090770102C0369506
S11316C027950A94E2F7622FE0912B02F0912C0205
S11316D08091DF019091E001E80FF91F2083409190
S11316E0DF015091E0014F5F5F4F5093E001409361
S11316F0DF0180912502909126024817590798F539
S11317008091BA019091BB01E7E7F1E06927660F88
S1131710F11DE60FF11DC895982F802D3196C895BF
S113172090259093BB018093BA014530510509F08F
S113173071C0E0912B02F0912C028481992790933F
S11317402602809325028E31910528F0148282E0CE
S1131750809366015FC00097F1F00596909326028E
S11317608093250257C048175907E1F48091BA01C4
S11317709091BB01E7E7F1E06927660FF11DE60FE1
S1131780F11DC895982F802D3196C895902590937A
S1131790BB018093BA0182E290E09093E0018093D0
S11317A0DF0138C044325105A8F1E0912B02F091D9
S11317B02C0222A133A18091BA019091BB01281778
S11317C0390729F481E090E082A393A302C012A216
S11317D013A20E940F0CC2E0C0936601E0912B0299
S11317E0F0912C02809132029091330284A395A34C
S11317F08CEA9FE00E94B202882361F4E0912B02FC
S1131800F0912C028483C093660180EC8DB9B89862
S11318100E94640681E090E0CF911F9108956F9833
S1131820B89AC0980E94640681E090E00895789484
S11318301F920F920FB60F9211242F933F934F9341
S11318405F936F937F938F939F93AF93BF93EF9324
S1131850FF938FB7F894282F332780917901882339
S113186069F080912902809349028860809329025B
S113187083BF80918A0181BF109279012FBF83E0D9
S113188090E10E94B202FF91EF91BF91AF919F91BD
S11318908F917F916F915F914F913F912F910F9015
S11318A00FBE0F901F901895382F80915E029927D4
S11318B08230910509F46BC0833091052CF40097B4
S11318C059F0019781F1B7C18330910509F49CC0A7
S11318D0049709F459C1AFC13E3709F0AEC18091F4
S11318E034029927FC01EE0FFF1FEE0FFF1FE80FD4
S11318F0F91FE80FF91FE75CFD4F82819381009780
S113190009F09BC1118290938E0180938D01909375
S11319106E0180936D018481958190934B02809335
S11319204A0281E085C13E3709F487C180913402BF
S11319309927FC01EE0FFF1FEE0FFF1FE80FF91FA1
S1131940E80FF91FE75CFD4F308380918D01909182
S11319508E01E7E7F1E0232F2927220FF11DE20F83
S1131960F11DC895982F802D3196C8959025909398
S11319708E0180938D01832F99278134910529F05D
S11319808234910509F453C156C182E051C13E37F6
S113199009F451C1609134023D3781F4862F9927AF
S11319A0FC01EE0FFF1FEE0FFF1FE80FF91FE80FFA
S11319B0F91FE75CFD4F80E281833FC1862F9927A1
S11319C0FC01EE0FFF1FEE0FFF1FE80FF91FE80FDA
S11319D0F91FE75CFD4F21812327218380918D012D
S11319E090918E01E7E7F1E02927220FF11DE20F24
S11319F0F11DC895982F802D3196C8959025909308
S1131A008E0180938D0113C140916D0150916E013F
S1131A104C32510508F0BAC03D3711F484E008C1D6
S1131A203E3709F07FC04230510508F45FC0E091B1
S1131A304A02F0914B02E40FF51F82919927382F47
S1131A40222782919927282B392B80918D019091FF
S1131A508E016091340228173907E1F4862F992703
S1131A60FC01EE0FFF1FEE0FFF1FE80FF91FE80F39
S1131A70F91FE75CFD4F425050404283538388EE88
S1131A8090E10E94B202809134028F5F8170809352
S1131A90340210C0862F9927FC01EE0FFF1FEE0FB2
S1131AA0FF1FE80FF91FE80FF91FE75CFD4F1282D3
S1131AB013821182809134029927FC01EE0FFF1FDB
S1131AC0EE0FFF1FE80FF91FE80FF91FE75CFD4F4A
S1131AD082819381892BD9F48481958190934B02DF
S1131AE080934A0281E080935E0213C080913402A5
S1131AF09927FC01EE0FFF1FEE0FFF1FE80FF91FE0
S1131B00E80FF91FE75CFD4F1282138211821092D5
S1131B105E0210928E0110928D0110926E0110924D
S1131B206D018BC0E0914A02F0914B02E40FF51F66
S1131B30308340916D0150916E0142305105E8F0BF
S1131B4020918D0130918E01E0914A02F0914B0277
S1131B50E40FF51F32978081E7E7F1E08327880FD0
S1131B60F11DE80FF11DC895322F202D3196C8952F
S1131B70302530938E0120938D014F5F5F4F50933A
S1131B806E0140936D0159C03E37D1F410928E011D
S1131B9010928D0110926E0110926D0180913402A9
S1131BA09927FC01EE0FFF1FEE0FFF1FE80FF91F2F
S1131BB0E80FF91FE75CFD4F1282138211823BC0CC
S1131BC080E28327E0914A02F0914B0220916D015B
S1131BD030916E01E20FF31F808340916D015091AB
S1131BE06E0142305105E8F020918D0130918E0153
S1131BF0E0914A02F0914B02E40FF51F3297808185
S1131C00E7E7F1E08327880FF11DE80FF11DC89580
S1131C10322F202D3196C895302530938E01209394
S1131C208D014F5F5F4F50936E0140936D0183E0D0
S1131C3080935E0202C010925E0281E090E00895FB
S1131C408FB7F894992720912F0210922F028FBFFB
S1131C50222309F4A4C080915F02873031F41092EA
S1131C605F028CE198E00E94B20221E080915F0261
S1131C7099278430910509F46EC08530910554F498
S1131C808230910561F1833091050CF058C00197C1
S1131C9049F07CC08630910509F471C006970CF4B4
S1131CA063C074C082E080935F022091050130918B
S1131CB0060180916001E7E7F1E08327880FF11DB9
S1131CC0E80FF11DC895322F202D3196C895302587
S1131CD030930601209305018091600154C0E09186
S1131CE0DC01F091DD012091270230912802E20FFE
S1131CF0F31F50818091050190910601E7E7F1E01F
S1131D00452F4927440FF11DE40FF11DC895982F65
S1131D10802D3196C89590259093060180930501F6
S1131D202F5F3F4F30932802209327028091670151
S1131D30909168012817390798F084E00FC08091CA
S1131D40660290E289270E940708282F80914702A3
S1131D5080935F021BC05091050185E080935F0270
S1131D60852F0E94D20E11C0809105019091060129
S1131D70292F332786E080935F02822FF2CF87E0FA
S1131D8080935F028EE70E940708282F213039F0E4
S1131D9088E080935F028CE198E00E94B20281E0C7
S1131DA090E00895982F8D57823078F48FB7F89487
S1131DB0282F332780915F028093470283E080932A
S1131DC05F02909366022FBF9DE7892F0E94070848
S1131DD0992708958FBF08958FB7F8949927089588
S1131DE01F93CF93E0917501F091760180819181E9
S1131DF08E379105C1F461E08FB7F8949091740225
S1131E0092FD08C0946090937402F0935E01E09395
S1131E105D0101C060E08FBF613009F092C00E9493
S1131E20A607682F8EC011E08FB7F894C82F809151
S1131E306101882311F010E018C010936101F09340
S1131E404F02E0934E028481992705969093740182
S1131E50809373010E9458088F77907084969093B2
S1131E6031028093300210936401CFBF112309F42F
S1131E7067C08FB7F8949927209166018FBF2630E9
S1131E8009F05EC040916B0250916C0260916D024A
S1131E9070916E0241FF17C08FB7F894282F332733
S1131EA0DB01CA018D7F80936B0290936C02A09337
S1131EB06D02B0936E022FBF0097A105B10519F40E
S1131EC081E080932D026BE380E00E94C00580EDE9
S1131ED097E0000000000000000000000000000087
S1131EE00000019718161906A4F369E380E00E9424
S1131EF0C00588EC90E00000000000000000000035
S1131F00000000000000019718161906A4F30E94AF
S1131F104506BB98BA9880EC8DB9B8980E946406BF
S1131F2020E230E040E050E061E0862F0E94760637
S1131F308FB7F894282F332782E0809366012FBF50
S1131F40612F662331F480917501909176010E948E
S1131F505308CF911F9108958FB7F894682F77276E
S1131F60E0912B02F0912C0217A210A684A195A156
S1131F709C01220F331F220F331F280F391F40915A
S1131F800E0250910F02CA01880F991F840F951FEA
S1131F90280F391F73E0369527957A95E1F730932A
S1131FA00F0220930E026FBFCF010E94E3069C0133
S1131FB08FB7F89499272115310521F030932C021D
S1131FC020932B02E0912B02F0912C0214828FBFFC
S1131FD080EC8DB9B8980E94640608958FB7F89480
S1131FE09927E0914E02F0914F0217A210A68FBFDD
S1131FF061E0CF010E9453088FB7F894992710929B
S113200061018FBF08958F929F92AF92BF92DF922A
S1132010EF92FF920F931F93CF93DF9381E080930E
S11320202D0280916B0290916C02A0916D02B0918F
S11320306E020097A105B10509F484C0DD2403E113
S113204012E0EE24FF2461E070E00E2C02C0660F63
S1132050771F0A94E2F7CB01AA2797FDA095BA2F20
S113206080906B0290906C02A0906D02B0906E0212
S113207088219921AA21BB210097A105B10509F462
S113208057C08091380299270196AA2797FDA095F9
S1132090BA2FF8012581368147815085281B390BD9
S11320A04A0B5B0B258336834783508723303105E6
S11320B041055105ECF58081882369F48181928181
S11320C0A381B481280F391F4A1F5B1F25833683E0
S11320D04783508713C0CB0180959095AA2797FD1D
S11320E0A095BA2F88229922AA22BB2280926B0241
S11320F090926C02A0926D02B0926E028091710275
S1132100813019F48FEF80937102909171029F5F77
S113211090937102809178018F5F80937801E92F09
S1132120FF27EE59FE4FD0828AE591E10E94B20268
S1132130D3940894E11CF11C075F1F4FF1E0FD15D7
S113214008F081CF0E940402DF91CF911F910F917B
S1132150FF90EF90DF90BF90AF909F908F90089585
S113216087B799278C7F009719F080E090E01AC018
S11321706F9918C0379B03C088E090E013C087B7FD
S1132180992783709070892B59F081B792B7891B76
S1132190803118F48CE190E005C088E190E002C041
S11321A080E190E0382F25B7237E8C3121F08831EF
S11321B011F008C0000080B7992787709070892BB0
S11321C0C9F7237E232B25BF85B7806285BF089579
S11321D00F931F93CF93DF939091610286E0989FB2
S11321E080011124075C1D4FF801C481D5818281CF
S11321F09381059780F12081822F9927813491055D
S113220059F08234910524F48034910521F11DC0E4
S11322108234910571F019C081E090E08AA39BA3F8
S1132220F80181818093370284E491E10E94B20233
S113223004C081E090E08AA39BA3809102018B8378
S1132240CE010E94E306EC0106C02093650185E2FD
S113225092E10E94B2028FB7F894282F3327209777
S113226019F0F801C483D583F80112821382118214
S1132270809161028F5F8170809361022FBFDF9133
S1132280CF911F910F9108952091370231E08FB7BC
S1132290F8949091740291FD06C092609093740238
S11322A02093350201C030E08FBF313011F40E9419
S11322B0A60708951F93CF93DF93909178019923F4
S11322C019F482E090E015C080915F01813019F427
S11322D08FEF80935F0180915F018F5F80935F0137
S11322E0915090937801E82FFF27EE59FE4F80819B
S11322F09927823008F0A5C0282F332721153105EE
S113230021F02130310571F09CC080911002909130
S1132310110290936502809364023093110220931A
S113232010028FC0E0913602EE2309F48AC08FB701
S1132330F894992720916601109164018FBF332787
S11323402230310521F02630310591F172C08E2FF3
S11323509927880F991FFC01EF55FF4F24913327CC
S1132360D22FCC278E559F4FFC0184919927C82BDF
S1132370D92B112309F05DC08FB7F894282F332788
S113238086E0809366012FBFCE01AA27BB279C015C
S1132390AD0161E0862F0E947606612F8BE00E94DA
S11323A0C0056FE3812F0E94C0050E940F0C49C035
S11323B0FF27E155FF4F8491C82FDD278FB7F8948D
S11323C0282F332782E0809366012FBF6BE380E0E0
S11323D00E94C00580ED97E00000000000000000AE
S11323E00000000000000000019718161906A4F36D
S11323F069E380E00E94C00588EC90E000000000E2
S11324000000000000000000000000000197181602
S11324101906A4F3BB98BA980E94450680EC8DB9BE
S1132420B8980E946406CE01AA27BB279C01AD017F
S113243004C020E230E040E050E061E0862F0E94DA
S11324407606DF91CF911F9108958FB7F894282FC6
S11324503327809174028860809374022FBF0E9496
S1072460A60708952A
S107246401007D01F1
S9030000FC
